{
  "_format": "hh-sol-artifact-1",
  "contractName": "ModelMarketplace",
  "sourceName": "contracts/ModelMarketplace.sol",
  "abi": [
    {
      "inputs": [],
      "stateMutability": "nonpayable",
      "type": "constructor"
    },
    {
      "inputs": [
        {
          "internalType": "address",
          "name": "owner",
          "type": "address"
        }
      ],
      "name": "OwnableInvalidOwner",
      "type": "error"
    },
    {
      "inputs": [
        {
          "internalType": "address",
          "name": "account",
          "type": "address"
        }
      ],
      "name": "OwnableUnauthorizedAccount",
      "type": "error"
    },
    {
      "anonymous": false,
      "inputs": [
        {
          "indexed": true,
          "internalType": "bytes32",
          "name": "modelHash",
          "type": "bytes32"
        },
        {
          "indexed": true,
          "internalType": "address",
          "name": "creator",
          "type": "address"
        },
        {
          "indexed": false,
          "internalType": "uint256",
          "name": "price",
          "type": "uint256"
        }
      ],
      "name": "ModelRegistered",
      "type": "event"
    },
    {
      "anonymous": false,
      "inputs": [
        {
          "indexed": true,
          "internalType": "address",
          "name": "previousOwner",
          "type": "address"
        },
        {
          "indexed": true,
          "internalType": "address",
          "name": "newOwner",
          "type": "address"
        }
      ],
      "name": "OwnershipTransferred",
      "type": "event"
    },
    {
      "inputs": [
        {
          "internalType": "bytes32",
          "name": "modelHash",
          "type": "bytes32"
        }
      ],
      "name": "getModel",
      "outputs": [
        {
          "components": [
            {
              "internalType": "bytes32",
              "name": "modelHash",
              "type": "bytes32"
            },
            {
              "internalType": "string",
              "name": "metadata",
              "type": "string"
            },
            {
              "internalType": "uint256",
              "name": "price",
              "type": "uint256"
            },
            {
              "internalType": "address",
              "name": "creator",
              "type": "address"
            }
          ],
          "internalType": "struct ModelMarketplace.AIModel",
          "name": "",
          "type": "tuple"
        }
      ],
      "stateMutability": "view",
      "type": "function"
    },
    {
      "inputs": [
        {
          "internalType": "bytes32",
          "name": "",
          "type": "bytes32"
        }
      ],
      "name": "models",
      "outputs": [
        {
          "internalType": "bytes32",
          "name": "modelHash",
          "type": "bytes32"
        },
        {
          "internalType": "string",
          "name": "metadata",
          "type": "string"
        },
        {
          "internalType": "uint256",
          "name": "price",
          "type": "uint256"
        },
        {
          "internalType": "address",
          "name": "creator",
          "type": "address"
        }
      ],
      "stateMutability": "view",
      "type": "function"
    },
    {
      "inputs": [],
      "name": "owner",
      "outputs": [
        {
          "internalType": "address",
          "name": "",
          "type": "address"
        }
      ],
      "stateMutability": "view",
      "type": "function"
    },
    {
      "inputs": [
        {
          "internalType": "bytes32",
          "name": "modelHash",
          "type": "bytes32"
        },
        {
          "internalType": "string",
          "name": "metadata",
          "type": "string"
        },
        {
          "internalType": "uint256",
          "name": "price",
          "type": "uint256"
        }
      ],
      "name": "registerModel",
      "outputs": [],
      "stateMutability": "nonpayable",
      "type": "function"
    },
    {
      "inputs": [],
      "name": "renounceOwnership",
      "outputs": [],
      "stateMutability": "nonpayable",
      "type": "function"
    },
    {
      "inputs": [
        {
          "internalType": "address",
          "name": "newOwner",
          "type": "address"
        }
      ],
      "name": "transferOwnership",
      "outputs": [],
      "stateMutability": "nonpayable",
      "type": "function"
    }
  ],
  "bytecode": "0x608060405234801561001057600080fd5b5033600073ffffffffffffffffffffffffffffffffffffffff168173ffffffffffffffffffffffffffffffffffffffff16036100845760006040517f1e4fbdf700000000000000000000000000000000000000000000000000000000815260040161007b919061019e565b60405180910390fd5b6100938161009960201b60201c565b506101b9565b60008060009054906101000a900473ffffffffffffffffffffffffffffffffffffffff169050816000806101000a81548173ffffffffffffffffffffffffffffffffffffffff021916908373ffffffffffffffffffffffffffffffffffffffff1602179055508173ffffffffffffffffffffffffffffffffffffffff168173ffffffffffffffffffffffffffffffffffffffff167f8be0079c531659141344cd1fd0a4f28419497f9722a3daafe3b4186f6b6457e060405160405180910390a35050565b600073ffffffffffffffffffffffffffffffffffffffff82169050919050565b60006101888261015d565b9050919050565b6101988161017d565b82525050565b60006020820190506101b3600083018461018f565b92915050565b611080806101c86000396000f3fe608060405234801561001057600080fd5b50600436106100625760003560e01c80631bcaf3a71461006757806321e7c49814610083578063715018a6146100b35780638da5cb5b146100bd578063e236f46b146100db578063f2fde38b1461010e575b600080fd5b610081600480360381019061007c91906108fe565b61012a565b005b61009d60048036038101906100989190610972565b610326565b6040516100aa9190610af1565b60405180910390f35b6100bb6104f4565b005b6100c5610508565b6040516100d29190610b22565b60405180910390f35b6100f560048036038101906100f09190610972565b610531565b6040516101059493929190610ba5565b60405180910390f35b61012860048036038101906101239190610c1d565b610609565b005b600073ffffffffffffffffffffffffffffffffffffffff166001600086815260200190815260200160002060030160009054906101000a900473ffffffffffffffffffffffffffffffffffffffff1673ffffffffffffffffffffffffffffffffffffffff16146101cf576040517f08c379a00000000000000000000000000000000000000000000000000000000081526004016101c690610c96565b60405180910390fd5b604051806080016040528085815260200184848080601f016020809104026020016040519081016040528093929190818152602001838380828437600081840152601f19601f8201169050808301925050505050505081526020018281526020013373ffffffffffffffffffffffffffffffffffffffff168152506001600086815260200190815260200160002060008201518160000155602082015181600101908161027c9190610ef1565b506040820151816002015560608201518160030160006101000a81548173ffffffffffffffffffffffffffffffffffffffff021916908373ffffffffffffffffffffffffffffffffffffffff1602179055509050503373ffffffffffffffffffffffffffffffffffffffff16847f5fd027933545a69b2c9d9d8f4c44438acf1ace41a5a4f0c2155253adfe676959836040516103189190610fc3565b60405180910390a350505050565b61032e6107e2565b600073ffffffffffffffffffffffffffffffffffffffff166001600084815260200190815260200160002060030160009054906101000a900473ffffffffffffffffffffffffffffffffffffffff1673ffffffffffffffffffffffffffffffffffffffff16036103d3576040517f08c379a00000000000000000000000000000000000000000000000000000000081526004016103ca9061102a565b60405180910390fd5b600160008381526020019081526020016000206040518060800160405290816000820154815260200160018201805461040b90610d14565b80601f016020809104026020016040519081016040528092919081815260200182805461043790610d14565b80156104845780601f1061045957610100808354040283529160200191610484565b820191906000526020600020905b81548152906001019060200180831161046757829003601f168201915b50505050508152602001600282015481526020016003820160009054906101000a900473ffffffffffffffffffffffffffffffffffffffff1673ffffffffffffffffffffffffffffffffffffffff1673ffffffffffffffffffffffffffffffffffffffff16815250509050919050565b6104fc61068f565b6105066000610716565b565b60008060009054906101000a900473ffffffffffffffffffffffffffffffffffffffff16905090565b600160205280600052604060002060009150905080600001549080600101805461055a90610d14565b80601f016020809104026020016040519081016040528092919081815260200182805461058690610d14565b80156105d35780601f106105a8576101008083540402835291602001916105d3565b820191906000526020600020905b8154815290600101906020018083116105b657829003601f168201915b5050505050908060020154908060030160009054906101000a900473ffffffffffffffffffffffffffffffffffffffff16905084565b61061161068f565b600073ffffffffffffffffffffffffffffffffffffffff168173ffffffffffffffffffffffffffffffffffffffff16036106835760006040517f1e4fbdf700000000000000000000000000000000000000000000000000000000815260040161067a9190610b22565b60405180910390fd5b61068c81610716565b50565b6106976107da565b73ffffffffffffffffffffffffffffffffffffffff166106b5610508565b73ffffffffffffffffffffffffffffffffffffffff1614610714576106d86107da565b6040517f118cdaa700000000000000000000000000000000000000000000000000000000815260040161070b9190610b22565b60405180910390fd5b565b60008060009054906101000a900473ffffffffffffffffffffffffffffffffffffffff169050816000806101000a81548173ffffffffffffffffffffffffffffffffffffffff021916908373ffffffffffffffffffffffffffffffffffffffff1602179055508173ffffffffffffffffffffffffffffffffffffffff168173ffffffffffffffffffffffffffffffffffffffff167f8be0079c531659141344cd1fd0a4f28419497f9722a3daafe3b4186f6b6457e060405160405180910390a35050565b600033905090565b6040518060800160405280600080191681526020016060815260200160008152602001600073ffffffffffffffffffffffffffffffffffffffff1681525090565b600080fd5b600080fd5b6000819050919050565b6108408161082d565b811461084b57600080fd5b50565b60008135905061085d81610837565b92915050565b600080fd5b600080fd5b600080fd5b60008083601f84011261088857610887610863565b5b8235905067ffffffffffffffff8111156108a5576108a4610868565b5b6020830191508360018202830111156108c1576108c061086d565b5b9250929050565b6000819050919050565b6108db816108c8565b81146108e657600080fd5b50565b6000813590506108f8816108d2565b92915050565b6000806000806060858703121561091857610917610823565b5b60006109268782880161084e565b945050602085013567ffffffffffffffff81111561094757610946610828565b5b61095387828801610872565b93509350506040610966878288016108e9565b91505092959194509250565b60006020828403121561098857610987610823565b5b60006109968482850161084e565b91505092915050565b6109a88161082d565b82525050565b600081519050919050565b600082825260208201905092915050565b60005b838110156109e85780820151818401526020810190506109cd565b60008484015250505050565b6000601f19601f8301169050919050565b6000610a10826109ae565b610a1a81856109b9565b9350610a2a8185602086016109ca565b610a33816109f4565b840191505092915050565b610a47816108c8565b82525050565b600073ffffffffffffffffffffffffffffffffffffffff82169050919050565b6000610a7882610a4d565b9050919050565b610a8881610a6d565b82525050565b6000608083016000830151610aa6600086018261099f565b5060208301518482036020860152610abe8282610a05565b9150506040830151610ad36040860182610a3e565b506060830151610ae66060860182610a7f565b508091505092915050565b60006020820190508181036000830152610b0b8184610a8e565b905092915050565b610b1c81610a6d565b82525050565b6000602082019050610b376000830184610b13565b92915050565b610b468161082d565b82525050565b600082825260208201905092915050565b6000610b68826109ae565b610b728185610b4c565b9350610b828185602086016109ca565b610b8b816109f4565b840191505092915050565b610b9f816108c8565b82525050565b6000608082019050610bba6000830187610b3d565b8181036020830152610bcc8186610b5d565b9050610bdb6040830185610b96565b610be86060830184610b13565b95945050505050565b610bfa81610a6d565b8114610c0557600080fd5b50565b600081359050610c1781610bf1565b92915050565b600060208284031215610c3357610c32610823565b5b6000610c4184828501610c08565b91505092915050565b7f4d6f64656c20616c726561647920726567697374657265640000000000000000600082015250565b6000610c80601883610b4c565b9150610c8b82610c4a565b602082019050919050565b60006020820190508181036000830152610caf81610c73565b9050919050565b7f4e487b7100000000000000000000000000000000000000000000000000000000600052604160045260246000fd5b7f4e487b7100000000000000000000000000000000000000000000000000000000600052602260045260246000fd5b60006002820490506001821680610d2c57607f821691505b602082108103610d3f57610d3e610ce5565b5b50919050565b60008190508160005260206000209050919050565b60006020601f8301049050919050565b600082821b905092915050565b600060088302610da77fffffffffffffffffffffffffffffffffffffffffffffffffffffffffffffffff82610d6a565b610db18683610d6a565b95508019841693508086168417925050509392505050565b6000819050919050565b6000610dee610de9610de4846108c8565b610dc9565b6108c8565b9050919050565b6000819050919050565b610e0883610dd3565b610e1c610e1482610df5565b848454610d77565b825550505050565b600090565b610e31610e24565b610e3c818484610dff565b505050565b5b81811015610e6057610e55600082610e29565b600181019050610e42565b5050565b601f821115610ea557610e7681610d45565b610e7f84610d5a565b81016020851015610e8e578190505b610ea2610e9a85610d5a565b830182610e41565b50505b505050565b600082821c905092915050565b6000610ec860001984600802610eaa565b1980831691505092915050565b6000610ee18383610eb7565b9150826002028217905092915050565b610efa826109ae565b67ffffffffffffffff811115610f1357610f12610cb6565b5b610f1d8254610d14565b610f28828285610e64565b600060209050601f831160018114610f5b5760008415610f49578287015190505b610f538582610ed5565b865550610fbb565b601f198416610f6986610d45565b60005b82811015610f9157848901518255600182019150602085019450602081019050610f6c565b86831015610fae5784890151610faa601f891682610eb7565b8355505b6001600288020188555050505b505050505050565b6000602082019050610fd86000830184610b96565b92915050565b7f4d6f64656c206e6f7420666f756e640000000000000000000000000000000000600082015250565b6000611014600f83610b4c565b915061101f82610fde565b602082019050919050565b6000602082019050818103600083015261104381611007565b905091905056fea2646970667358221220307d9eb51c3d67891c50fb067cc71311f3c34d80d0bfeb9eda1ad4dc57a0ef0964736f6c63430008140033",
  "linkReferences": {},
  "deployedLinkReferences": {}
}