{
  "_format": "hh-sol-artifact-1",
  "contractName": "Staking",
  "sourceName": "contracts/Staking.sol",
  "abi": [
    {
      "inputs": [
        {
          "internalType": "address",
          "name": "tokenAddress",
          "type": "address"
        },
        {
          "internalType": "uint256",
          "name": "_minimumStake",
          "type": "uint256"
        }
      ],
      "stateMutability": "nonpayable",
      "type": "constructor"
    },
    {
      "inputs": [
        {
          "internalType": "address",
          "name": "owner",
          "type": "address"
        }
      ],
      "name": "OwnableInvalidOwner",
      "type": "error"
    },
    {
      "inputs": [
        {
          "internalType": "address",
          "name": "account",
          "type": "address"
        }
      ],
      "name": "OwnableUnauthorizedAccount",
      "type": "error"
    },
    {
      "anonymous": false,
      "inputs": [
        {
          "indexed": true,
          "internalType": "address",
          "name": "previousOwner",
          "type": "address"
        },
        {
          "indexed": true,
          "internalType": "address",
          "name": "newOwner",
          "type": "address"
        }
      ],
      "name": "OwnershipTransferred",
      "type": "event"
    },
    {
      "anonymous": false,
      "inputs": [
        {
          "indexed": true,
          "internalType": "address",
          "name": "node",
          "type": "address"
        },
        {
          "indexed": false,
          "internalType": "uint256",
          "name": "amount",
          "type": "uint256"
        }
      ],
      "name": "Slashed",
      "type": "event"
    },
    {
      "anonymous": false,
      "inputs": [
        {
          "indexed": true,
          "internalType": "address",
          "name": "node",
          "type": "address"
        },
        {
          "indexed": false,
          "internalType": "uint256",
          "name": "amount",
          "type": "uint256"
        }
      ],
      "name": "Staked",
      "type": "event"
    },
    {
      "anonymous": false,
      "inputs": [
        {
          "indexed": true,
          "internalType": "address",
          "name": "node",
          "type": "address"
        },
        {
          "indexed": false,
          "internalType": "uint256",
          "name": "amount",
          "type": "uint256"
        }
      ],
      "name": "Unstaked",
      "type": "event"
    },
    {
      "inputs": [],
      "name": "deaiToken",
      "outputs": [
        {
          "internalType": "contract DeAIToken",
          "name": "",
          "type": "address"
        }
      ],
      "stateMutability": "view",
      "type": "function"
    },
    {
      "inputs": [],
      "name": "minimumStake",
      "outputs": [
        {
          "internalType": "uint256",
          "name": "",
          "type": "uint256"
        }
      ],
      "stateMutability": "view",
      "type": "function"
    },
    {
      "inputs": [],
      "name": "owner",
      "outputs": [
        {
          "internalType": "address",
          "name": "",
          "type": "address"
        }
      ],
      "stateMutability": "view",
      "type": "function"
    },
    {
      "inputs": [],
      "name": "renounceOwnership",
      "outputs": [],
      "stateMutability": "nonpayable",
      "type": "function"
    },
    {
      "inputs": [
        {
          "internalType": "uint256",
          "name": "_minimumStake",
          "type": "uint256"
        }
      ],
      "name": "setMinimumStake",
      "outputs": [],
      "stateMutability": "nonpayable",
      "type": "function"
    },
    {
      "inputs": [
        {
          "internalType": "address",
          "name": "node",
          "type": "address"
        },
        {
          "internalType": "uint256",
          "name": "amount",
          "type": "uint256"
        }
      ],
      "name": "slash",
      "outputs": [],
      "stateMutability": "nonpayable",
      "type": "function"
    },
    {
      "inputs": [],
      "name": "stake",
      "outputs": [],
      "stateMutability": "nonpayable",
      "type": "function"
    },
    {
      "inputs": [
        {
          "internalType": "address",
          "name": "",
          "type": "address"
        }
      ],
      "name": "stakes",
      "outputs": [
        {
          "internalType": "uint256",
          "name": "amount",
          "type": "uint256"
        },
        {
          "internalType": "uint256",
          "name": "timestamp",
          "type": "uint256"
        }
      ],
      "stateMutability": "view",
      "type": "function"
    },
    {
      "inputs": [
        {
          "internalType": "address",
          "name": "newOwner",
          "type": "address"
        }
      ],
      "name": "transferOwnership",
      "outputs": [],
      "stateMutability": "nonpayable",
      "type": "function"
    },
    {
      "inputs": [],
      "name": "unstake",
      "outputs": [],
      "stateMutability": "nonpayable",
      "type": "function"
    }
  ],
  "bytecode": "0x60806040523480156200001157600080fd5b50604051620011ec380380620011ec833981810160405281019062000037919062000278565b33600073ffffffffffffffffffffffffffffffffffffffff168173ffffffffffffffffffffffffffffffffffffffff1603620000ad5760006040517f1e4fbdf7000000000000000000000000000000000000000000000000000000008152600401620000a49190620002d0565b60405180910390fd5b620000be816200010f60201b60201c565b5081600160006101000a81548173ffffffffffffffffffffffffffffffffffffffff021916908373ffffffffffffffffffffffffffffffffffffffff160217905550806003819055505050620002ed565b60008060009054906101000a900473ffffffffffffffffffffffffffffffffffffffff169050816000806101000a81548173ffffffffffffffffffffffffffffffffffffffff021916908373ffffffffffffffffffffffffffffffffffffffff1602179055508173ffffffffffffffffffffffffffffffffffffffff168173ffffffffffffffffffffffffffffffffffffffff167f8be0079c531659141344cd1fd0a4f28419497f9722a3daafe3b4186f6b6457e060405160405180910390a35050565b600080fd5b600073ffffffffffffffffffffffffffffffffffffffff82169050919050565b60006200020582620001d8565b9050919050565b6200021781620001f8565b81146200022357600080fd5b50565b60008151905062000237816200020c565b92915050565b6000819050919050565b62000252816200023d565b81146200025e57600080fd5b50565b600081519050620002728162000247565b92915050565b60008060408385031215620002925762000291620001d3565b5b6000620002a28582860162000226565b9250506020620002b58582860162000261565b9150509250929050565b620002ca81620001f8565b82525050565b6000602082019050620002e76000830184620002bf565b92915050565b610eef80620002fd6000396000f3fe608060405234801561001057600080fd5b506004361061009e5760003560e01c8063715018a611610066578063715018a6146101205780638da5cb5b1461012a578063b8bea3ab14610148578063ec5ffac214610166578063f2fde38b146101845761009e565b806302fb4d85146100a357806316934fc4146100bf578063233e9903146100f05780632def66201461010c5780633a4b66f114610116575b600080fd5b6100bd60048036038101906100b89190610a69565b6101a0565b005b6100d960048036038101906100d49190610aa9565b610304565b6040516100e7929190610ae5565b60405180910390f35b61010a60048036038101906101059190610b0e565b610328565b005b61011461033a565b005b61011e61054a565b005b61012861078e565b005b6101326107a2565b60405161013f9190610b4a565b60405180910390f35b6101506107cb565b60405161015d9190610bc4565b60405180910390f35b61016e6107f1565b60405161017b9190610bdf565b60405180910390f35b61019e60048036038101906101999190610aa9565b6107f7565b005b6101a861087d565b6000600260008473ffffffffffffffffffffffffffffffffffffffff1673ffffffffffffffffffffffffffffffffffffffff1681526020019081526020016000206040518060400160405290816000820154815260200160018201548152505090506000816000015111610251576040517f08c379a000000000000000000000000000000000000000000000000000000000815260040161024890610c57565b60405180910390fd5b8060000151821115610298576040517f08c379a000000000000000000000000000000000000000000000000000000000815260040161028f90610cc3565b60405180910390fd5b81816000018181516102aa9190610d12565b915081815250508273ffffffffffffffffffffffffffffffffffffffff167f4ed05e9673c26d2ed44f7ef6a7f2942df0ee3b5e1e17db4b99f9dcd261a339cd836040516102f79190610bdf565b60405180910390a2505050565b60026020528060005260406000206000915090508060000154908060010154905082565b61033061087d565b8060038190555050565b6000600260003373ffffffffffffffffffffffffffffffffffffffff1673ffffffffffffffffffffffffffffffffffffffff16815260200190815260200160002060405180604001604052908160008201548152602001600182015481525050905060008160000151116103e3576040517f08c379a00000000000000000000000000000000000000000000000000000000081526004016103da90610c57565b60405180910390fd5b6040518060400160405280600081526020016000815250600260003373ffffffffffffffffffffffffffffffffffffffff1673ffffffffffffffffffffffffffffffffffffffff1681526020019081526020016000206000820151816000015560208201518160010155905050600160009054906101000a900473ffffffffffffffffffffffffffffffffffffffff1673ffffffffffffffffffffffffffffffffffffffff1663a9059cbb3383600001516040518363ffffffff1660e01b81526004016104b1929190610d46565b6020604051808303816000875af11580156104d0573d6000803e3d6000fd5b505050506040513d601f19601f820116820180604052508101906104f49190610da7565b503373ffffffffffffffffffffffffffffffffffffffff167f0f5bb82176feb1b5e747e28471aa92156a04d9f3ab9f45f28e2d704232b93f75826000015160405161053f9190610bdf565b60405180910390a250565b6000600160009054906101000a900473ffffffffffffffffffffffffffffffffffffffff1673ffffffffffffffffffffffffffffffffffffffff166370a08231336040518263ffffffff1660e01b81526004016105a79190610b4a565b602060405180830381865afa1580156105c4573d6000803e3d6000fd5b505050506040513d601f19601f820116820180604052508101906105e89190610de9565b905060035481101561062f576040517f08c379a000000000000000000000000000000000000000000000000000000000815260040161062690610e62565b60405180910390fd5b604051806040016040528082815260200142815250600260003373ffffffffffffffffffffffffffffffffffffffff1673ffffffffffffffffffffffffffffffffffffffff1681526020019081526020016000206000820151816000015560208201518160010155905050600160009054906101000a900473ffffffffffffffffffffffffffffffffffffffff1673ffffffffffffffffffffffffffffffffffffffff166323b872dd3330846040518463ffffffff1660e01b81526004016106f993929190610e82565b6020604051808303816000875af1158015610718573d6000803e3d6000fd5b505050506040513d601f19601f8201168201806040525081019061073c9190610da7565b503373ffffffffffffffffffffffffffffffffffffffff167f9e71bc8eea02a63969f509818f2dafb9254532904319f9dbda79b67bd34a5f3d826040516107839190610bdf565b60405180910390a250565b61079661087d565b6107a06000610904565b565b60008060009054906101000a900473ffffffffffffffffffffffffffffffffffffffff16905090565b600160009054906101000a900473ffffffffffffffffffffffffffffffffffffffff1681565b60035481565b6107ff61087d565b600073ffffffffffffffffffffffffffffffffffffffff168173ffffffffffffffffffffffffffffffffffffffff16036108715760006040517f1e4fbdf70000000000000000000000000000000000000000000000000000000081526004016108689190610b4a565b60405180910390fd5b61087a81610904565b50565b6108856109c8565b73ffffffffffffffffffffffffffffffffffffffff166108a36107a2565b73ffffffffffffffffffffffffffffffffffffffff1614610902576108c66109c8565b6040517f118cdaa70000000000000000000000000000000000000000000000000000000081526004016108f99190610b4a565b60405180910390fd5b565b60008060009054906101000a900473ffffffffffffffffffffffffffffffffffffffff169050816000806101000a81548173ffffffffffffffffffffffffffffffffffffffff021916908373ffffffffffffffffffffffffffffffffffffffff1602179055508173ffffffffffffffffffffffffffffffffffffffff168173ffffffffffffffffffffffffffffffffffffffff167f8be0079c531659141344cd1fd0a4f28419497f9722a3daafe3b4186f6b6457e060405160405180910390a35050565b600033905090565b600080fd5b600073ffffffffffffffffffffffffffffffffffffffff82169050919050565b6000610a00826109d5565b9050919050565b610a10816109f5565b8114610a1b57600080fd5b50565b600081359050610a2d81610a07565b92915050565b6000819050919050565b610a4681610a33565b8114610a5157600080fd5b50565b600081359050610a6381610a3d565b92915050565b60008060408385031215610a8057610a7f6109d0565b5b6000610a8e85828601610a1e565b9250506020610a9f85828601610a54565b9150509250929050565b600060208284031215610abf57610abe6109d0565b5b6000610acd84828501610a1e565b91505092915050565b610adf81610a33565b82525050565b6000604082019050610afa6000830185610ad6565b610b076020830184610ad6565b9392505050565b600060208284031215610b2457610b236109d0565b5b6000610b3284828501610a54565b91505092915050565b610b44816109f5565b82525050565b6000602082019050610b5f6000830184610b3b565b92915050565b6000819050919050565b6000610b8a610b85610b80846109d5565b610b65565b6109d5565b9050919050565b6000610b9c82610b6f565b9050919050565b6000610bae82610b91565b9050919050565b610bbe81610ba3565b82525050565b6000602082019050610bd96000830184610bb5565b92915050565b6000602082019050610bf46000830184610ad6565b92915050565b600082825260208201905092915050565b7f4e6f207374616b6520666f756e64000000000000000000000000000000000000600082015250565b6000610c41600e83610bfa565b9150610c4c82610c0b565b602082019050919050565b60006020820190508181036000830152610c7081610c34565b9050919050565b7f416d6f756e742065786365656473207374616b65000000000000000000000000600082015250565b6000610cad601483610bfa565b9150610cb882610c77565b602082019050919050565b60006020820190508181036000830152610cdc81610ca0565b9050919050565b7f4e487b7100000000000000000000000000000000000000000000000000000000600052601160045260246000fd5b6000610d1d82610a33565b9150610d2883610a33565b9250828203905081811115610d4057610d3f610ce3565b5b92915050565b6000604082019050610d5b6000830185610b3b565b610d686020830184610ad6565b9392505050565b60008115159050919050565b610d8481610d6f565b8114610d8f57600080fd5b50565b600081519050610da181610d7b565b92915050565b600060208284031215610dbd57610dbc6109d0565b5b6000610dcb84828501610d92565b91505092915050565b600081519050610de381610a3d565b92915050565b600060208284031215610dff57610dfe6109d0565b5b6000610e0d84828501610dd4565b91505092915050565b7f4e6f7420656e6f75676820746f6b656e7320746f207374616b65000000000000600082015250565b6000610e4c601a83610bfa565b9150610e5782610e16565b602082019050919050565b60006020820190508181036000830152610e7b81610e3f565b9050919050565b6000606082019050610e976000830186610b3b565b610ea46020830185610b3b565b610eb16040830184610ad6565b94935050505056fea26469706673582212204b22862cbb3688e37a28390dbbb325cc53cb91c6f1fc75ef77ca35336beaff4f64736f6c63430008140033",
  "linkReferences": {},
  "deployedLinkReferences": {}
}